:1000000009C021C020C01FC01EC01DC052C01BC0DF
:10001000B8C019C011241FBECFE9CDBF20E0A2E6B1
:10002000B0E001C01D92A037B207E1F710E0A0E6F2
:10003000B0E0EAEDF2E002C005900D92A236B10701
:10004000D9F7B0D048C1DCCF409367005093680027
:100050006093690070936A0090916100911104C0EF
:10006000909166009817D9F090916100992319F04A
:1000700010926100B89AF89493B7987F93BF12BE1C
:1000800086BF8093660089B7846089BF8FB58F77FC
:100090008FBDC09A83E08FBD286023BF78940895F8
:1000A000EFE5F9E03197F1F700C000000197C1F7E3
:1000B00008951F920F920FB60F9211240F931F9362
:1000C0002F933F934F935F936F937F938F939F9360
:1000D000AF93BF932091610081E090E0AC0102C03A
:1000E000440F551F2A95E2F746BB409166000091E8
:1000F0006700109168002091690030916A0050E01B
:1001000070E060E0041715072607370790F429B759
:100110002B7F29BF20916100263040F437B301C006
:10012000880F2A95EAF78095832387BB8FEF80930A
:100130006100209166008091670090916800A09115
:100140006900B0916A00821B9109A109B1098093ED
:10015000670090936800A0936900B0936A0012BE94
:10016000BF91AF919F918F917F916F915F914F91CF
:100170003F912F911F910F910F900FBE0F901F90E5
:100180001895EF93EFB7EF930F93EBE600810D4EC9
:1001900002C000810F4F0193E0F70F91EF91EFBF85
:1001A000EF91189583E083BF8FBD80E481BD789483
:1001B000BB98BA98B99ABC9AC1E0DAE012ED0EE6A3
:1001C00086B390E09595879595958795282F217012
:1001D00081709927909365008093640080916000FE
:1001E000813041F486B383FB882780F980936200D5
:1001F000109263008091620090916300222309F4C1
:1002000048C08130910509F04CC0C09360008FB5A3
:100210008F7D8FBDC198C49A24E044EC50E160E02A
:1002200070E080E611DF81E890E03ADF85E090E061
:1002300037DF24E044EC50E160E070E087E404DF65
:1002400081E890E02DDF86E090E02ADF8FB58F7D9A
:100250008FBDC19AC49824E04FE950E160E070E09E
:1002600088E3F2DE80E890E01BDF88E090E018DFB2
:1002700024E044EC50E160E070E08FE2E5DE81E8EC
:1002800090E00EDF85E090E00BDF84E690E008DF91
:1002900097CFC09360008FB58F7D8FBDC19AC49AF0
:1002A000F4CF892BB1F710926000C49A8FB58062A9
:1002B0008FBDD9BD88EE93E0F3DE8FB580628FBD30
:1002C00019BD88EE93E0ECDE8FB580628FBD09BD6D
:0A02D00088EE93E0D9CFF894FFCF39
:0202DA0001FF22
:00000001FF
